:100000000C942D000C949C000C949C000C949C006F
:100010000C949C000C949C000C949C000C949C00F0
:100020000C949C000C949C000C949C000C949C00E0
:100030000C949C000C949C000C949C000C949C00D0
:100040000C949C000C949C000C949C000C949C00C0
:100050000C949C0000600061800011241FBECFE55D
:10006000D8E0DEBFCDBFE4E5F0E040E017C0B591D9
:10007000A59135912591059107FD0CC0959185912C
:10008000EF01F92FE82F05900D92A217B307D9F7CA
:10009000FE0104C01D92A217B307E1F7E935F4078A
:0E00A00031F70E9474000C945500F894FFCFC5
:1000AE00892BB9F06C9A8DB1643071051CF0962FC6
:1000BE009D7F01C0962F892B8DB98DB191E0643053
:1000CE0071050CF490E0892B8DB987B3806B87BBDB
:0A00DE0002C06C98BE9A6E9A089555
:1000E80063E070E080E090E00E9457000E948A0080
:1000F8000E94980080936000813619F40E948F0056
:0C010800F7CF8236A9F70E949400F2CFD6
:0A01140084B3846884BB8B9A0895BD
:0A011E0095B384E0892785BB08959E
:0801280085B3805885BB0895E2
:08013000779BFECF8FB108950B
:040138000C94000023
:00000001FF
